:020000040800F2
:10000000C0060020690100087101000873010008A2
:100010007501000877010008790100080000000060
:100020000000000000000000000000007B0100084C
:100030007D010008000000007F0100088101000828
:100040008301000883010008830100088301000880
:100050008301000883010008830100088301000870
:1000600000000000830100088301000883010008EC
:100070002502000883010008830100080000000039
:1000800083010008C5020008000000008301000889
:100090008301000883010008830100088301000830
:1000A0008301000883010008830100088301000820
:1000B00083010008000000000000000000000000B4
:1000C00083010008000000008301000800F002F82E
:1000D00000F03AF80AA090E8000C82448344AAF1A8
:1000E0000107DA4501D100F02FF8AFF2090EBAE8A6
:1000F0000F0013F0010F18BFFB1A43F0010318475C
:10010000180A0000380A0000103A24BF78C878C1E5
:10011000FAD8520724BF30C830C144BF04680C600D
:10012000704700000023002400250026103A28BF55
:1001300078C1FBD8520728BF30C148BF0B60704759
:100140001FB51FBD10B510BD00F031F81146FFF707
:10015000F7FF00F0CFFA00F04FF803B4FFF7F2FF1B
:1001600003BC00F057F800000948804709480047E1
:10017000FEE7FEE7FEE7FEE7FEE7FEE7FEE7FEE757
:10018000FEE7FEE704480549054A064B70470000B4
:1001900069020008CD000008C0000020C006002051
:1001A000C0020020C00200207047704770477546AB
:1001B00000F02CF8AE4605006946534620F00700D3
:1001C000854618B020B5FFF7DDFFBDE820404FF0B1
:1001D00000064FF000074FF000084FF0000BAC4650
:1001E000ACE8C009ACE8C009ACE8C009ACE8C0099B
:1001F00021F007018D46704710B50446AFF300802B
:100200002046BDE81040FFF7A8BF00000048704737
:100210001000002001491820ABBEFEE726000200B6
:100220007047000080B500F05BFC42F20040C4F271
:10023000010000F077F840F27201C2F2000108807C
:100240004FF09040082100F04BF940F27802C2F2E2
:10025000000240F27C011378C2F20001087043F002
:100260003000107080BD000041F20000C4F20200B6
:10027000016841F00101016001688907FCD541680E
:1002800021F00301416000BF416811F00C0FFBD168
:1002900001684FF6FF72CFF6F26211400160002153
:1002A000416041F61071C1624FF4801101634FF457
:1002B0001F0181604EF60850CEF200004FF0006141
:1002C0000160704710B540F27004C2F2000420785B
:1002D0000130C1B20829207003D300F0CBFA00200E
:1002E000207040F27800C2F2000090F90100B0F1F5
:1002F000FF3F09DC40F20040C4F6000041690122E2
:100300008A43012100F0ACF841F21004C4F2000469
:10031000A4F11000012100F0E1FB206820F00100B1
:10032000206010BDC06C80B2704700008368072950
:1003300023F0007388BF03F100738360836802F0C9
:10034000010261F353438360816821F4801141EA23
:10035000025181607047000041F20401C4F20201C1
:100360000A6800F00F0022F0F00242EA0010086074
:1003700070470000042888BF7047DFE800F0030CD6
:1003800019262F0041F20000C4F20200026861F356
:1003900000020260704741F20000C4F202000268ED
:1003A00001F0010122F4803242EA0141016070470C
:1003B00041F20000C4F20200026801F0010122F0E3
:1003C000807242EA01610160704741F20000C4F2AC
:1003D0000200026A61F300020262704741F200000B
:1003E000C4F20200426A61F30002426270470000F8
:1003F00041F23001C4F202010A6800F0010022F06B
:10040000007242EA406008607047000041F230012B
:10041000C4F202010A6800F0010042F000720A60B2
:100420004A6A22F4007242EA4020486270470000A3
:1004300041F2000200F01F034FF0010CC4F202026F
:1004400001290CFA03F14FEA1040835814BF23EA44
:100450000101194381507047816270478161704783
:100460001823002A08BF2823C1507047F0B50A8816
:10047000002A08BFF0BD00234FF0030C4FF0010E1F
:10048000002405E0520804F1010403F1020326D020
:10049000D507F7D005680CFA03F6B54305608D79EA
:1004A00007689D403D43056045680EFA04F7BD436B
:1004B00045600D794768A5403D4345608568B54373
:1004C0008560CD7987689D403D438560C568B543AB
:1004D000C5604D79C6689D403543C560D2E7F0BD23
:1004E00000690840401AB0FA80F0400970470000E7
:1004F000B0B582B00120012500F004FB012000F01E
:10050000F7FA002000F0FEFA0020FFF77FFF00203E
:100510000121FFF72FFF0120FFF76AFF0020FFF7FF
:100520001BFF1120C0F214000121FFF781FF0024FE
:10053000C0F2012469464FF09040CDE90054FFF726
:1005400095FF0220009069464FF090400194FFF71C
:100550008DFF0420009069464FF090400194FFF712
:1005600085FF0820009069464FF090400194FFF706
:100570007DFF1020009069464FF090400194FFF7F6
:1005800075FF2020009069464FF090400194FFF7DE
:100590006DFF4020009069464FF090400194FFF7B6
:1005A00065FF8020009069464FF090400194FFF76E
:1005B0005DFF4FF48070009069464FF090400194C9
:1005C000FFF754FF40F201144FF40070C0F2022410
:1005D000009069464FF090400194FFF747FF4FF4B9
:1005E0008060009069464FF090400194FFF73EFF15
:1005F00002B0B0BDF0B581B045F21444C4F20004BD
:1006000054F80C0C682120F4004044F80C0C54F809
:100610000C0C40F2000561F3090044F80C0C54F88E
:10062000040C0F2161F3070044F8040C54F8140C77
:10063000C2F2000540F4807044F8140C2068C00732
:100640001AD10027012600BF297806FA07F00842D0
:1006500006D081B24FF09040FFF700FF05E000BFE9
:1006600081B24FF09040FFF7F7FE0137082FEBD132
:1006700020680027C007E7D0206880071AD4002729
:10068000012600BF697806FA07F0084206D081B259
:100690004FF09040FFF7E2FE05E000BF81B24FF05F
:1006A0009040FFF7D9FE0137082FEBD120680027D3
:1006B0008007E7D52068C0061AD40027012600BFAE
:1006C000A97806FA07F0084206D081B24FF09040B0
:1006D000FFF7C4FE05E000BF81B24FF09040FFF786
:1006E000BBFE0137082FEBD120680027C006E7D5F5
:1006F00001B0F0BDFFF7FCFEFFF77CFFFEE7000056
:10070000B0B540F27800C2F200008278037802F0BF
:100710007F01DC07817044D19A0740F1AA8040F242
:10072000750EC2F2000E40F2740C9EF80020C2F268
:10073000000C9CF80030002A18BF002B74D1AAB11D
:10074000013A8EF8002040F2A802C2F200021E25F3
:100750001560C278457802F0FB0241F00401C270D6
:1007600045F0800201F07E0142708170002B08BFCD
:10077000B0BD591E8CF8001040F2A801C2F2000171
:1007800078220A60C2784178837842F00402C2700D
:1007900043F0040241F08001417002F0FE018270DA
:1007A00066E0920719D440F27502C2F20002137893
:1007B000002B5ED0013B137040F2A802C2F200028F
:1007C0001E231360C278437802F0FB0241F004015B
:1007D000C270817043F0800247E0C278530711D4A1
:1007E00040F27403C2F200031C7842F00402002CB1
:1007F0001CBF013C1C7040F2A803C2F20003782425
:100800001C602BE040F27503C2F200031C7802F07A
:10081000FB02002C1CBF013C1C7040F2A803C2F27A
:1008200000031E241C6019E0C47865070BD45A1E0F
:100830008CF8002040F2A802C2F200027823136074
:1008400044F004020AE0013A8EF8002040F2A802C7
:10085000C2F200021E23136004F0FB02C270427851
:1008600041F0040142F080028170427001F07E018B
:100870008170B0BDF0B581B040F2A801C2F20001B4
:100880000A6840F27800C2F2000012B1013A0A6030
:1008900008E04178827801F07F01417002F0FA01AE
:1008A0000131817040F2980140F28007C2F20001EC
:1008B000C2F20007D1E90054D7E900630278751B42
:1008C00042F0400573EB0404057021D30A3643F16E
:1008D0000003D207C1E900631AD1807810F0300F0D
:1008E00016D040F28805C2F200052E7846B142F2D9
:1008F0000040C4F2010007210122FFF717FD04E0C8
:100900004FF090401021FFF7A9FD86F001002870FC
:1009100040F2A000C2F20000D0E90036D7E9002181
:10092000D31A71EB060306D3C83241F10001C0E9C6
:100930000021FFF7E5FE40F29000C2F20000D0E98E
:100940000036D7E90021D31A71EB060307D312F55D
:100950007A7241F10001C0E9002100F009F8D7E9FD
:100960000001013041F10001C7E9000101B0F0BD13
:1009700070B540F27801C2F2000140F2AC0C887808
:10098000C2F2000C9CF8003040F080028A705A1CC1
:1009900006078CF800200BD440F2AF05C2F2000528
:1009A0002E78002E07BF40F088008870701E2870D7
:1009B0008878C60649D54C78E60606D440F2BC06CF
:1009C000C2F2000635680135356004F00A060A2EC9
:1009D0003BD040F2B80EA607C2F2000E0ED5DEF8EC
:1009E00000505DB1013DCEF8005007D104F0D904AC
:1009F000CD7804344C7005F0FE04CC704C7825079B
:100A000023D540F2B405C2F200052E6816B1013EAE
:100A10002E600CE0DEF8005035B144F020044C703C
:100A20006C1ECEF8004002E004F0DF064E7040F28B
:100A3000B005C2F200052E683EB1013E2E6004D121
:100A40004E7806F0A70610364E700E7816F00104A8
:100A500003D14E7816F00A0F14D080F04000887051
:100A6000DCB33B2B01D01D2B37D1C87880071FD5B5
:100A70008878830719D440F27500C2F2000003237E
:100A8000037015E040F2AD0EC2F2000E9EF8005069
:100A90000135EEB2032E8EF80050E1D380F0400015
:100AA000887000208EF80000DAE700F0FD00887002
:100AB000D0B23C2818BF70BD40F2AE00C2F20000B8
:100AC00002780AB1511E04E08A7842F002028A706C
:100AD0001E21017000208CF8000070BDC1627047BB
:100AE00043F20000C4F200004AF6AA2101607047F8
:100AF00043F20401C4F200010A6860F302020A60D2
:100B00007047000043F20001C4F20001002818BF42
:100B100045F2555008607047380B0008000000206F
:100B20001000000008010008480B00081000002019
:100B3000B0060000240100083F065B4F666D7D078C
:080B40007F6F000000000000BF
:04000005080000CD22
:00000001FF
